{
  "contractName": "ExerciseC6A",
  "abi": [
    {
      "inputs": [],
      "payable": false,
      "stateMutability": "nonpayable",
      "type": "constructor"
    },
    {
      "constant": true,
      "inputs": [],
      "name": "operational",
      "outputs": [
        {
          "internalType": "bool",
          "name": "",
          "type": "bool"
        }
      ],
      "payable": false,
      "stateMutability": "view",
      "type": "function"
    },
    {
      "constant": true,
      "inputs": [
        {
          "internalType": "address",
          "name": "account",
          "type": "address"
        }
      ],
      "name": "isUserRegistered",
      "outputs": [
        {
          "internalType": "bool",
          "name": "",
          "type": "bool"
        }
      ],
      "payable": false,
      "stateMutability": "view",
      "type": "function"
    },
    {
      "constant": false,
      "inputs": [
        {
          "internalType": "bool",
          "name": "status",
          "type": "bool"
        }
      ],
      "name": "setOperatingStatus",
      "outputs": [],
      "payable": false,
      "stateMutability": "nonpayable",
      "type": "function"
    },
    {
      "constant": false,
      "inputs": [
        {
          "internalType": "address",
          "name": "account",
          "type": "address"
        },
        {
          "internalType": "bool",
          "name": "isAdmin",
          "type": "bool"
        }
      ],
      "name": "registerUser",
      "outputs": [],
      "payable": false,
      "stateMutability": "nonpayable",
      "type": "function"
    }
  ],
  "bytecode": "0x608060405260006040519080825280602002602001820160405280156100345781602001602082028038833980820191505090505b506003908051906020019061004a9291906100b8565b5034801561005757600080fd5b50336000806101000a81548173ffffffffffffffffffffffffffffffffffffffff021916908373ffffffffffffffffffffffffffffffffffffffff1602179055506001600260006101000a81548160ff021916908315150217905550610185565b828054828255906000526020600020908101928215610131579160200282015b828111156101305782518260006101000a81548173ffffffffffffffffffffffffffffffffffffffff021916908373ffffffffffffffffffffffffffffffffffffffff160217905550916020019190600101906100d8565b5b50905061013e9190610142565b5090565b61018291905b8082111561017e57600081816101000a81549073ffffffffffffffffffffffffffffffffffffffff021916905550600101610148565b5090565b90565b610949806101946000396000f3fe608060405234801561001057600080fd5b506004361061004c5760003560e01c80630a40108614610051578063110466ed14610073578063163f7522146100a3578063951faf00146100ff575b600080fd5b61005961014f565b604051808215151515815260200191505060405180910390f35b6100a16004803603602081101561008957600080fd5b81019080803515159060200190929190505050610162565b005b6100e5600480360360208110156100b957600080fd5b81019080803573ffffffffffffffffffffffffffffffffffffffff169060200190929190505050610476565b604051808215151515815260200191505060405180910390f35b61014d6004803603604081101561011557600080fd5b81019080803573ffffffffffffffffffffffffffffffffffffffff169060200190929190803515159060200190929190505050610554565b005b600260009054906101000a900460ff1681565b600260009054906101000a900460ff16151581151514156101eb576040517f08c379a00000000000000000000000000000000000000000000000000000000081526004018080602001828103825260188152602001807f5468652073746174757320697320616c7265617920736574000000000000000081525060200191505060405180910390fd5b600160003373ffffffffffffffffffffffffffffffffffffffff1673ffffffffffffffffffffffffffffffffffffffff16815260200190815260200160002060000160019054906101000a900460ff166102ad576040517f08c379a00000000000000000000000000000000000000000000000000000000081526004018080602001828103825260168152602001807f55736572206e6565647320746f2062652061646d696e0000000000000000000081525060200191505060405180910390fd5b600080905060008090505b600380549050811015610346573373ffffffffffffffffffffffffffffffffffffffff16600382815481106102e957fe5b9060005260206000200160009054906101000a900473ffffffffffffffffffffffffffffffffffffffff1673ffffffffffffffffffffffffffffffffffffffff1614156103395760019150610346565b80806001019150506102b8565b50801561039e576040517f08c379a00000000000000000000000000000000000000000000000000000000081526004018080602001828103825260238152602001806108f26023913960400191505060405180910390fd5b60033390806001815401808255809150509060018203906000526020600020016000909192909190916101000a81548173ffffffffffffffffffffffffffffffffffffffff021916908373ffffffffffffffffffffffffffffffffffffffff1602179055505060038080549050106104725781600260006101000a81548160ff021916908315150217905550600060405190808252806020026020018201604052801561045a5781602001602082028038833980820191505090505b5060039080519060200190610470929190610802565b505b5050565b60008073ffffffffffffffffffffffffffffffffffffffff168273ffffffffffffffffffffffffffffffffffffffff1614156104fd576040517f08c379a00000000000000000000000000000000000000000000000000000000081526004018080602001828103825260228152602001806108d06022913960400191505060405180910390fd5b600160008373ffffffffffffffffffffffffffffffffffffffff1673ffffffffffffffffffffffffffffffffffffffff16815260200190815260200160002060000160009054906101000a900460ff169050919050565b6000809054906101000a900473ffffffffffffffffffffffffffffffffffffffff1673ffffffffffffffffffffffffffffffffffffffff163373ffffffffffffffffffffffffffffffffffffffff1614610616576040517f08c379a000000000000000000000000000000000000000000000000000000000815260040180806020018281038252601c8152602001807f43616c6c6572206973206e6f7420636f6e7472616374206f776e65720000000081525060200191505060405180910390fd5b60011515600260009054906101000a900460ff1615151461069f576040517f08c379a00000000000000000000000000000000000000000000000000000000081526004018080602001828103825260208152602001807f5468697320636f6e7472616374206973206e6f74206f7065726174696f6e616c81525060200191505060405180910390fd5b600160008373ffffffffffffffffffffffffffffffffffffffff1673ffffffffffffffffffffffffffffffffffffffff16815260200190815260200160002060000160009054906101000a900460ff1615610762576040517f08c379a000000000000000000000000000000000000000000000000000000000815260040180806020018281038252601b8152602001807f5573657220697320616c726561647920726567697374657265642e000000000081525060200191505060405180910390fd5b6040518060400160405280600115158152602001821515815250600160008473ffffffffffffffffffffffffffffffffffffffff1673ffffffffffffffffffffffffffffffffffffffff16815260200190815260200160002060008201518160000160006101000a81548160ff02191690831515021790555060208201518160000160016101000a81548160ff0219169083151502179055509050505050565b82805482825590600052602060002090810192821561087b579160200282015b8281111561087a5782518260006101000a81548173ffffffffffffffffffffffffffffffffffffffff021916908373ffffffffffffffffffffffffffffffffffffffff16021790555091602001919060010190610822565b5b509050610888919061088c565b5090565b6108cc91905b808211156108c857600081816101000a81549073ffffffffffffffffffffffffffffffffffffffff021916905550600101610892565b5090565b9056fe276163636f756e7427206d75737420626520612076616c696420616464726573732e43616c6c657220616c72656164792063616c6c656420746869732066756e6374696f6ea265627a7a7231582096d8a7350a09200a0825ce7b9a7bf05642ffb0fff2c32b4e336ce4ac3d2d67f664736f6c63430005100032",
  "source": "pragma solidity ^0.5.16;\r\n\r\ncontract ExerciseC6A {\r\n\r\n    /********************************************************************************************/\r\n    /*                                       DATA VARIABLES                                     */\r\n    /********************************************************************************************/\r\n\r\n\r\n    struct UserProfile {\r\n        bool isRegistered;\r\n        bool isAdmin;\r\n    }\r\n\r\n    address private contractOwner;                  // Account used to deploy contract\r\n    mapping(address => UserProfile) userProfiles;   // Mapping for storing user profiles\r\n    bool public operational;\r\n    uint constant M = 3;\r\n\r\n    address[] multicalls = new address[](0);\r\n\r\n    /********************************************************************************************/\r\n    /*                                       EVENT DEFINITIONS                                  */\r\n    /********************************************************************************************/\r\n\r\n    // No events\r\n\r\n    /**\r\n    * @dev Constructor\r\n    *      The deploying account becomes contractOwner\r\n    */\r\n    constructor () \r\n        public \r\n    {\r\n        contractOwner = msg.sender;\r\n        operational = true;\r\n    }\r\n\r\n    /********************************************************************************************/\r\n    /*                                       FUNCTION MODIFIERS                                 */\r\n    /********************************************************************************************/\r\n\r\n    // Modifiers help avoid duplication of code. They are typically used to validate something\r\n    // before a function is allowed to be executed.\r\n\r\n    /**\r\n    * @dev Modifier that requires the \"ContractOwner\" account to be the function caller\r\n    */\r\n    modifier requireContractOwner()\r\n    {\r\n        require(msg.sender == contractOwner, \"Caller is not contract owner\");\r\n        _;\r\n    }\r\n\r\n    modifier requireIsOperational() {\r\n        require(operational == true, \"This contract is not operational\");\r\n        _;\r\n    }\r\n\r\n\r\n\r\n    /********************************************************************************************/\r\n    /*                                       UTILITY FUNCTIONS                                  */\r\n    /********************************************************************************************/\r\n\r\n   /**\r\n    * @dev Check if a user is registered\r\n    *\r\n    * @return A bool that indicates if the user is registered\r\n    */   \r\n    function isUserRegistered ( address account )\r\n        external\r\n        view\r\n        returns(bool)\r\n    {\r\n        require(account != address(0), \"'account' must be a valid address.\");\r\n        return userProfiles[account].isRegistered;\r\n    }\r\n\r\n    function setOperatingStatus(bool status) \r\n        public \r\n    {\r\n        require(status != operational, \"The status is alreay set\");\r\n        require(userProfiles[msg.sender].isAdmin, \"User needs to be admin\");\r\n        bool duplicate = false;\r\n\r\n        for(uint i = 0; i < multicalls.length; i++) {\r\n            if (multicalls[i] == msg.sender) {\r\n                duplicate = true;\r\n                break;\r\n            }\r\n        }\r\n        require(!duplicate, \"Caller already called this function\");\r\n\r\n        multicalls.push(msg.sender);\r\n        if (multicalls.length >= M) {\r\n            operational = status;\r\n            multicalls = new address[](0);\r\n        }\r\n    }\r\n\r\n    /********************************************************************************************/\r\n    /*                                     SMART CONTRACT FUNCTIONS                             */\r\n    /********************************************************************************************/\r\n\r\n    function registerUser ( address account, bool isAdmin )\r\n        external\r\n        requireContractOwner\r\n        requireIsOperational\r\n    {\r\n        require(!userProfiles[account].isRegistered, \"User is already registered.\");\r\n\r\n        userProfiles[account] = UserProfile({ \r\n            isRegistered: true,\r\n            isAdmin: isAdmin\r\n        });\r\n    }\r\n}\r\n\r\n",
  "sourcePath": "C:\\Users\\jgtec\\.jg\\BCND-C6-Exercises\\contracts\\ExerciseC6A.sol",
  "compiler": {
    "name": "solc",
    "version": "0.5.16+commit.9c3226ce.Emscripten.clang"
  },
  "schemaVersion": "3.4.3",
  "updatedAt": "2021-08-30T02:57:02.561Z",
  "devdoc": {
    "methods": {
      "constructor": {
        "details": "Constructor     The deploying account becomes contractOwner"
      },
      "isUserRegistered(address)": {
        "details": "Check if a user is registered ",
        "return": "A bool that indicates if the user is registered"
      }
    }
  },
  "userdoc": {
    "methods": {
      "registerUser(address,bool)": {
        "notice": "*****************************************************************************************"
      }
    }
  }
}