{
  "contractName": "ExerciseC6C",
  "abi": [
    {
      "inputs": [],
      "payable": false,
      "stateMutability": "nonpayable",
      "type": "constructor"
    },
    {
      "constant": true,
      "inputs": [
        {
          "name": "id",
          "type": "string"
        }
      ],
      "name": "isEmployeeRegistered",
      "outputs": [
        {
          "name": "",
          "type": "bool"
        }
      ],
      "payable": false,
      "stateMutability": "view",
      "type": "function"
    },
    {
      "constant": false,
      "inputs": [
        {
          "name": "id",
          "type": "string"
        },
        {
          "name": "isAdmin",
          "type": "bool"
        },
        {
          "name": "wallet",
          "type": "address"
        }
      ],
      "name": "registerEmployee",
      "outputs": [],
      "payable": false,
      "stateMutability": "nonpayable",
      "type": "function"
    },
    {
      "constant": true,
      "inputs": [
        {
          "name": "id",
          "type": "string"
        }
      ],
      "name": "getEmployeeBonus",
      "outputs": [
        {
          "name": "",
          "type": "uint256"
        }
      ],
      "payable": false,
      "stateMutability": "view",
      "type": "function"
    }
  ],
  "bytecode": "0x608060405234801561001057600080fd5b50336000806101000a81548173ffffffffffffffffffffffffffffffffffffffff021916908373ffffffffffffffffffffffffffffffffffffffff16021790555061063f806100606000396000f300608060405260043610610057576000357c0100000000000000000000000000000000000000000000000000000000900463ffffffff168063228f25dc1461005c578063ea20f20a146100c3578063f6f2dfcb14610116575b600080fd5b34801561006857600080fd5b506100c1600480360381019080803590602001908201803590602001919091929391929390803515159060200190929190803573ffffffffffffffffffffffffffffffffffffffff169060200190929190505050610165565b005b3480156100cf57600080fd5b506100fc600480360381019080803590602001908201803590602001919091929391929390505050610437565b604051808215151515815260200191505060405180910390f35b34801561012257600080fd5b5061014f600480360381019080803590602001908201803590602001919091929391929390505050610477565b6040518082815260200191505060405180910390f35b6000809054906101000a900473ffffffffffffffffffffffffffffffffffffffff1673ffffffffffffffffffffffffffffffffffffffff163373ffffffffffffffffffffffffffffffffffffffff16141515610229576040517f08c379a000000000000000000000000000000000000000000000000000000000815260040180806020018281038252601c8152602001807f43616c6c6572206973206e6f7420636f6e7472616374206f776e65720000000081525060200191505060405180910390fd5b6001848460405180838380828437820191505092505050908152602001604051809103902060010160009054906101000a900460ff161515156102d4576040517f08c379a000000000000000000000000000000000000000000000000000000000815260040180806020018281038252601f8152602001807f456d706c6f79656520697320616c726561647920726567697374657265642e0081525060200191505060405180910390fd5b60c06040519081016040528085858080601f0160208091040260200160405190810160405280939291908181526020018383808284378201915050505050508152602001600115158152602001831515815260200160008152602001600081526020018273ffffffffffffffffffffffffffffffffffffffff1681525060018585604051808383808284378201915050925050509081526020016040518091039020600082015181600001908051906020019061039292919061056e565b5060208201518160010160006101000a81548160ff02191690831515021790555060408201518160010160016101000a81548160ff021916908315150217905550606082015181600201556080820151816003015560a08201518160040160006101000a81548173ffffffffffffffffffffffffffffffffffffffff021916908373ffffffffffffffffffffffffffffffffffffffff16021790555090505050505050565b60006001838360405180838380828437820191505092505050908152602001604051809103902060010160009054906101000a900460ff16905092915050565b60008060009054906101000a900473ffffffffffffffffffffffffffffffffffffffff1673ffffffffffffffffffffffffffffffffffffffff163373ffffffffffffffffffffffffffffffffffffffff1614151561053d576040517f08c379a000000000000000000000000000000000000000000000000000000000815260040180806020018281038252601c8152602001807f43616c6c6572206973206e6f7420636f6e7472616374206f776e65720000000081525060200191505060405180910390fd5b6001838360405180838380828437820191505092505050908152602001604051809103902060030154905092915050565b828054600181600116156101000203166002900490600052602060002090601f016020900481019282601f106105af57805160ff19168380011785556105dd565b828001600101855582156105dd579182015b828111156105dc5782518255916020019190600101906105c1565b5b5090506105ea91906105ee565b5090565b61061091905b8082111561060c5760008160009055506001016105f4565b5090565b905600a165627a7a723058202757bd54dd74962eae8a7bc5dbe9f3419df073b3263e66fc987c73664ae947d90029",
  "source": "pragma solidity ^0.4.25;\n\n// It's important to avoid vulnerabilities due to numeric overflow bugs\n// OpenZeppelin's SafeMath library, when used correctly, protects agains such bugs\n// More info: https://www.nccgroup.trust/us/about-us/newsroom-and-events/blog/2018/november/smart-contract-insecurity-bad-arithmetic/\n\nimport \"../../node_modules/openzeppelin-solidity/contracts/math/SafeMath.sol\";\n\n\ncontract ExerciseC6C {\n    using SafeMath for uint256; // Allow SafeMath functions to be called for all uint256 types (similar to \"prototype\" in Javascript)\n\n    /********************************************************************************************/\n    /*                                       DATA VARIABLES                                     */\n    /********************************************************************************************/\n\n    struct Profile {\n        string id;\n        bool isRegistered;\n        bool isAdmin;\n        uint256 sales;\n        uint256 bonus;\n        address wallet;\n    }\n\n    address private contractOwner;              // Account used to deploy contract\n    mapping(string => Profile) employees;      // Mapping for storing employees\n\n    /********************************************************************************************/\n    /*                                       EVENT DEFINITIONS                                  */\n    /********************************************************************************************/\n\n    // No events\n\n    /**\n    * @dev Constructor\n    *      The deploying account becomes contractOwner\n    */\n    constructor\n                                (\n                                ) \n                                public \n    {\n        contractOwner = msg.sender;\n    }\n\n    /********************************************************************************************/\n    /*                                       FUNCTION MODIFIERS                                 */\n    /********************************************************************************************/\n\n    // Modifiers help avoid duplication of code. They are typically used to validate something\n    // before a function is allowed to be executed.\n\n    /**\n    * @dev Modifier that requires the \"ContractOwner\" account to be the function caller\n    */\n    modifier requireContractOwner()\n    {\n        require(msg.sender == contractOwner, \"Caller is not contract owner\");\n        _;\n    }\n\n    /********************************************************************************************/\n    /*                                       UTILITY FUNCTIONS                                  */\n    /********************************************************************************************/\n\n   /**\n    * @dev Check if an employee is registered\n    *\n    * @return A bool that indicates if the employee is registered\n    */   \n    function isEmployeeRegistered\n                            (\n                                string id\n                            )\n                            external\n                            view\n                            returns(bool)\n    {\n        return employees[id].isRegistered;\n    }\n\n    /********************************************************************************************/\n    /*                                     SMART CONTRACT FUNCTIONS                             */\n    /********************************************************************************************/\n\n    function registerEmployee\n                                (\n                                    string id,\n                                    bool isAdmin,\n                                    address wallet\n                                )\n                                external\n                                requireContractOwner\n    {\n        require(!employees[id].isRegistered, \"Employee is already registered.\");\n\n        employees[id] = Profile({\n                                        id: id,\n                                        isRegistered: true,\n                                        isAdmin: isAdmin,\n                                        sales: 0,\n                                        bonus: 0,\n                                        wallet: wallet\n                                });\n    }\n\n    function getEmployeeBonus\n                            (\n                                string id\n                            )\n                            external\n                            view\n                            requireContractOwner\n                            returns(uint256)\n    {\n        return employees[id].bonus;\n    }\n\n    function updateEmployee\n                                (\n                                    string id,\n                                    uint256 sales,\n                                    uint256 bonus\n\n                                )\n                                internal\n                                requireContractOwner\n    {\n        require(employees[id].isRegistered, \"Employee is not registered.\");\n\n        employees[id].sales = employees[id].sales.add(sales);\n        employees[id].bonus = employees[id].bonus.add(bonus);\n\n    }\n\n\n\n\n\n}",
  "sourcePath": "/Users/phuc.tran/Workplace/Udacity/BlockchainND/Practice/BCND-C6-Exercises/contracts/ExerciseC6C/ExerciseC6C.sol",
  "compiler": {
    "name": "solc",
    "version": "0.4.26+commit.4563c3fc.Emscripten.clang"
  },
  "schemaVersion": "3.4.3",
  "updatedAt": "2021-12-07T05:58:49.617Z",
  "devdoc": {
    "methods": {
      "isEmployeeRegistered(string)": {
        "details": "Check if an employee is registered",
        "return": "A bool that indicates if the employee is registered"
      }
    }
  },
  "userdoc": {
    "methods": {
      "registerEmployee(string,bool,address)": {
        "notice": "*****************************************************************************************"
      }
    }
  }
}